:200000000C946D000C9495000C9495000C9495000C9495000C9495000C9495000C94950060
:200020000C9495000C9497000C9495000C9495000C9495000C9495000C9495000C94950016
:200040000C94C1060C9495000C94B4070C9402080C9495000C9495000C9495000C9495002B
:200060000C9495000C94950076161E26252E360D151D242D2C35141C1B232B3433121A227E
:20008000212A32313A41494A29E0113B424B4C52660E3C43444D545B5A3D3E46454E555D91
:2000A0009F0506040C030BFFECF5E9FDFFFF94EBF2F4FAFFEB59FFFFFFFFFDFFFF7B79AF78
:2000C000FFFF91F2F5F4FFFFF1F0EC7CE9817E82FF830A0109780777650911241FBECFEF3B
:2000E000D4E0DEBFCDBF11E0A0E0B1E0ECE3F5E102C005900D92A432B107D9F712E0A4E2B0
:20010000B1E001C01D92AA3DB107E1F710E0CAEDD0E004C02297FE010E94980AC83DD10773
:20012000C9F70E94BB090C949C0A0C9400001F920F920FB60F9211248F939F938FED8093E3
:20014000B20080912501833000F522982A9A8091240180FF23C0189BA0C0809125018130FD
:2001600031F0813040F0823009F0F3C006C01A9902C08DE0ECC082E0EAC08091240183FF07
:20018000E8C02A98229A84E2E2C0809125018A3108F076C08091240180FD08C08091240160
:2001A0008160809324012098289AD3C0189B73C080912501873140F4803118F58D3061F044
:2001C0008F3009F057C00CC08831F1F1883168F1893109F04FC04BC0809124018D7FABC05D
:2001E000809124018B7F809324011A9B05C080E88093120281E016C01092140210921202D9
:2002000039C08091120290E095958795809312021A9B30C0809112028068809312028091F9
:2002200014028F5F8093140225C01A9B05C0809114028F5F809314028091140280FD1AC076
:2002400080912401826010C01A9905C0809124018260809324018091240181FD0BC02A98AD
:20026000229A8091240184608093240103C022982A9A67C02898209A809124018E7F5BC030
:20028000809125018F3208F064C08091240180FF0EC0189904C022982A9A81E058C080914A
:2002A00024018E7F809324012898209A52C0809124018160809324012098289A8091250148
:2002C0008C3228F4853280F48432F1F507C08D32A9F18D32F8F08E32B9F533C0809113022F
:2002E00080931502109214028091150280FF08C022982A9A809114028F5F8093140202C02F
:200300002A98229A8091150290E095958795809315021AC08091140280FF03C02A98229A96
:2003200002C022982A9A80912401877F809324018091240180618093240106C022982A9A76
:2003400003C01092250105C0809125018F5F809325019F918F910F900FBE0F901F90189538
:20036000282F8F3F31F410922C0181E08093110208958E3F21F08D3F29F410922C01109208
:200380001102089580911102882351F080912C01E82FF0E0E25DFE4F20838F5F80932C011B
:2003A0008091470190914801019668EC70E00E94460AFC0190934801809347018091450132
:2003C000909146018E179F0759F4009719F487EC90E001C0019790934801809347010895D9
:2003E000E75BFE4F20830895209145013091460180914701909148012817390711F480E088
:200400000895C901019668EC70E00E94460AFC019093460180934501E75BFE4F808108955B
:200420000F931F9308EB12E0C80140E052EC61E070E00E943D080E94E4051092250181E12F
:20044000809324012098289A22982A9A1092B00082E08093B1008FED8093B200E0E7F0E01C
:2004600080818160808388E080932601C80160E071E00E94100A1F910F910895DF92EF9200
:20048000FF920F931F93D82EE62EF42E00914401802F6E2D4D2D0E94D305182F002319F0B4
:2004A00001508F3FA9F3812F81508E3F08F08CC0103E49F4FF2021F081E08093440184C037
:2004C0001092440181C0FF2009F44DC010934301109228011092290110922A0110922B01B2
:2004E00010922601123891F0133851F1113869F58FEF0E94B00180EE0E94B00182E10E949D
:20050000B00180EE0E94B0018CE729C08DEF0E94B00181EE0E94B00184E10E94B00187E756
:200520000E94B00181EE0E94B00180EF0E94B00184E10E94B00180EF0E94B00187E73FC0FD
:200540008FEF0E94B00183E80AC08FEF0E94B00117FF03C080EE0E94B001812F8F770E94D2
:20056000B0018EEF2CC080914301811711F410922C01123849F1133899F01138B1F480EEEC
:200580000E94B00180EF0E94B0018CE70E94B00180EE0E94B00180EF0E94B00182E10FC0CB
:2005A00080EF0E94B00183E80AC017FF03C080EE0E94B00180EF0E94B001812F8F770E9490
:2005C000B0018CEF0E94B0011F910F91FF90EF90DF9008958F929F92AF92BF92CF92DF927C
:2005E000EF92FF920F931F93CF93DF930E942D069BE3E92E91E0F92E00E081E0882E912C0B
:20060000802F0E941806482FF7018081842759F1C0E0D0E0A82EBB24C42EDD24C5010C2E0E
:2006200002C0959587950A94E2F780FF18C0A6010C2E02C0559547950A94E2F74170507093
:200640008C2F602F0E943E0294010C2E02C0220F331F0A94E2F7F701808182278083219687
:20066000C730D105D9F60F5F0894E11CF11C083039F681E090E0DF91CF911F910F91FF90E3
:20068000EF90DF90CF90BF90AF909F908F90089510924601109245011092480110924701EE
:2006A00010922C0110922D01109228011092290110922A0110922B010E941E060895EF9285
:2006C000FF920F931F938091240182FF54C280913801909139018C3F910561F0209145011A
:2006E0003091460180914701909148012817390709F041C2F894809124018B7F80932401B0
:2007000078948091120280933A0190912601923009F4C2C0933018F4913039F4A7C09630E7
:2007200009F4FBC0973009F4C4C0823FD9F0833F50F48E3E09F4BAC0803F09F44CC08D3E53
:2007400009F0EBC05BC0863F09F47EC0873F20F4833F09F0E2C065C08E3F51F18F3F09F0A8
:20076000DCC013C08AEF8093270180931302F894809124018F7E8093240180912401886009
:2007800080932401789484E0D5C18AEF8093270180931302F894809124018F7E8093240138
:2007A00080912401886080932401789488E0C2C18091270180931302F894809124018F7EBC
:2007C0008093240180912401886080932401789490932601E3C18AEF8093270180931302B5
:2007E000F894809124018F7E8093240180912401886080932401789482E09CC18AEF809345
:20080000270180931302F894809124018F7E8093240180912401886080932401789486E0B9
:2008200089C18AEF8093270180931302F894809124018F7E8093240180912401886080935A
:200840002401789487E076C182E080930E0185E090E0A0E0B0E080930F0190931001A093D6
:200860001101B09312010E94480357C0853F09F454C08AEF8093270180931302F8948091BE
:2008800024018F7E8093240180912401886080932401789481E04EC10E94480380913A01E3
:2008A000882311F090E001C093E08AEF8093270181CF682F70E0CB0180769070A5E095958C
:2008C0008795AA95E1F780930E01AB0148715070F3E055954795FA95E1F721E030E080E02D
:2008E00090E003C0220F331F019684179507D4F367707070269FC001279F900D369F900D9B
:200900001124AA2797FDA095BA2F80930F0190931001A0931101B09312018AEF19C18091C9
:200920002601843009F4F4C0853030F4882371F0833009F033C1EAC0883009F400C18C30CA
:2009400009F468C0853009F029C1F7C02091450130914601809147019091480128173907E2
:2009600011F40E94EA020E94F401282F30E030933901209338012C3F310509F40FC1232B41
:2009800099F08E3F11F08093270180931302F894809124018F7E8093240180912401886078
:2009A0008093240178944CC080912C01882309F4F5C08091280190912901A0912A01B0912A
:2009C0002B010196A11DB11D8093280190932901A0932A01B0932B0120910E016AEF269F94
:2009E00090011124245D3E4F442737FD4095542F82179307A407B5070CF4D0C01092280137
:200A00001092290110922A0110922B0110922D018CE090C080912D01882311F40E94EA0266
:200A200080912C01882361F0209145013091460180914701909148012817390709F4A0C0DE
:200A400010922601109228011092290110922A0110922B01A3C080912D01882349F1809103
:200A60002D01E82FF0E0E25DFE4FE081982F9F5F90932D01EE3F11F0E0932701E09313020D
:200A8000F894809124018F7E809324018091240188608093240178948CE080932601609156
:200AA0002C01892F90E070E00E94320A80932D01E0902801F090290100912A0110912B01A6
:200AC0000894E11CF11C011D111D60910F017091100180911101909112012AE030E040E080
:200AE00050E00E94130A9B01AC012D5F3F4F4F4F5F4FC801B7010E947B0A60932801709391
:200B0000290180932A0190932B0148C082E020C08BEA8093270180931302F894809124013A
:200B20008F7E8093240180912401886080932401789485E08093260131C083E809C00E94A8
:200B4000480368EE73E080E090E00E9415078AEA8093270180931302F894809124018F7E6D
:200B6000809324018091240188608093240178941092260113C08091240184FDD0CE0EC01C
:200B80008091280190912901A0912A01B0912B010197A105B10509F05ECF61CF1F910F916D
:200BA000FF90EF90089598E3899FF001112487E0689FB0011124E60FF71FE40FF11DE85920
:200BC000FF4FE4918E2F089587B1807C87B988B18F6388B98AB1837F8AB98BB18C608BB92C
:200BE00087B1807C87B988B18F6388B98AB1837B8AB98BB18C648BB980917B0080648093A6
:200C00007B0080917A008F7780937A0080B78F7380BF80E090E0FC01EA5EFD4F1082FC01D3
:200C2000E25EFD4F1082019688309105A1F70895E6E1F2E0E80FF11D8081089580E090E070
:200C4000FC01EA5EFD4F1082FC01E25EFD4F1082019688309105A1F70895BF92CF92DF9219
:200C6000EF92FF920F931F93CF93DF933EE1E32E32E0F32EC0E0D0E021E0C22ED12C95E024
:200C8000B92E9C2FC63078F487B196010C2E02C0220F331F0A94E2F7822B87B988B12095A0
:200CA000282328B90AC0C63019F0C73031F403C0539A5B9802C0529A5A989093260210E0A5
:200CC00000E080912602181781F080917C00912F9770807F982B90937C0085E090E00E942F
:200CE0006E07069500B605FC00681F5F183049F7202F30E035952795F7018081821719F03F
:200D00002083B092130187B1807C87B988B18F6388B98AB1837F8AB98BB18C608BB9219657
:200D20000894E11CF11CC830D10509F0AACF809113018823D9F0815080931301882339F068
:200D400061E070E080E090E00E9415070FC020E030E0F901EA5EFD4FD901A25EBD4F8C9104
:200D600080832F5F3F4F2830310599F781E0DF91CF911F910F91FF90EF90DF90CF90BF908A
:200D800008951F920F920FB60F9211242F933F934F935F936F937F938F939F93AF93BF9365
:200DA00020912B0230912C0240912D0250912E0270912F02DA01C9010296A11DB11D672FC4
:200DC0006A5F6D3730F06D57DA01C9010396A11DB11D60932F0280932B0290932C02A09310
:200DE0002D02B0932E028091270290912802A0912902B0912A020196A11DB11D80932702A4
:200E000090932802A0932902B0932A02BF91AF919F918F917F916F915F914F913F912F9168
:200E20000F900FBE0F901F9018959B01AC017FB7F8948091270290912802A0912902B0911E
:200E40002A0266B5A89B05C06F3F19F00196A11DB11D7FBFBA2FA92F982F8827860F911DB1
:200E6000A11DB11D63E0880F991FAA1FBB1F6A95D1F7BC012DC0FFB7F894809127029091A3
:200E80002802A0912902B0912A02E6B5A89B05C0EF3F19F00196A11DB11DFFBFBA2FA92FE3
:200EA000982F88278E0F911DA11DB11DE3E0880F991FAA1FBB1FEA95D1F7861B970B885EC0
:200EC0009340C8F2215030404040504068517C4F211531054105510571F60895019739F043
:200EE000019729F0880F991F01970197F1F70895789484B5826084BD84B5816084BD85B540
:200F0000826085BD85B5816085BDEEE6F0E0808181608083E1E8F0E01082808182608083B6
:200F2000808181608083E0E8F0E0808181608083E1EBF0E0808184608083E0EBF0E080812F
:200F400081608083EAE7F0E08081846080838081826080838081816080838081806880836D
:200F60001092C100089508951F920F920FB60F9211242F933F934F938F939F93EF93FF9309
:200F80008091C00082FD1DC04091C60020917002309171022F5F3F4F2F7330708091720253
:200FA000909173022817390771F0E0917002F0917102E05DFD4F408330937102209370023D
:200FC00002C08091C600FF91EF919F918F914F913F912F910F900FBE0F901F901895E091D0
:200FE000C402F091C502E05CFF4F8191919120813181821B930B8F739070892B11F00E943E
:20100000B30708951F920F920FB60F9211242F933F938F939F93EF93FF932091B402309168
:20102000B5028091B6029091B7022817390731F48091C1008F7D8093C10014C0E091B60203
:20104000F091B702EC58FD4F20818091B6029091B70201968F7390709093B7028093B60242
:201060002093C600FF91EF919F918F913F912F910F900FBE0F901F901895AF92BF92DF929D
:20108000EF92FF920F931F93CF93DF93EC017A018B01DD24D39491E0A92EB12CEC89FD899A
:2010A000DD2069F0C50108A002C0880F991F0A94E2F7808360E874E88EE190E005C0108207
:2010C00060E472E48FE090E0A80197010E94590A2150304040405040569547953795279511
:2010E00080E12030380720F0DD2011F0DD24D6CFE889F9893083EA89FB89208319A2EE89DA
:20110000FF89408121E030E0C9010C8C02C0880F991F0A94E2F7482B4083EE89FF89408195
:20112000C9010D8C02C0880F991F0A94E2F7482B4083EE89FF894081C9010E8C02C0880F11
:20114000991F0A94E2F7482B4083EE89FF8980810F8C02C0220F331F0A94E2F720952823D3
:201160002083DF91CF911F910F91FF90EF90DF90BF90AF900895DC011C96ED91FC911D97B6
:20118000E05CFF4F2191319180819181281B390B2F733070C9010895DC011C96ED91FC9174
:2011A0001D97E05CFF4F20813181E054F040DF01AE5BBF4F8D919C9111972817390719F4C4
:2011C0002FEF3FEF07C08D919C91E80FF91F8081282F30E0C9010895DC011C96ED91FC9139
:2011E0001D97E05CFF4F20813181E054F040DF01AE5BBF4F8D919C9111972817390719F484
:201200002FEF3FEF10C08D919C911197E80FF91F20818D919C91119701968F7390701196DC
:201220009C938E9330E0C9010895DC0191968C919197882339F05496ED91FC9155978081E8
:2012400086FFF9CF91961C920895CF93DF93EC01EE85FF85E05CFF4F20813181E054F040D6
:201260002F5F3F4F2F733070DF01AE5BBF4F8D919C91119728173907D1F3E05CFF4F808158
:201280009181E054F040E80FF91F6083EE85FF85E05CFF4F31832083EE89FF89208181E00D
:2012A00090E00F8C02C0880F991F0A94E2F7282B208381E089A3EC89FD8980818064808335
:2012C00081E090E0DF91CF9108951092BB021092BA0288EE93E0A0E0B0E08093BC02909326
:2012E000BD02A093BE02B093BF0288E191E09093B9028093B80280E392E09093C5028093E1
:20130000C40284E792E09093C7028093C60285EC90E09093C9028093C80284EC90E09093B4
:20132000CB028093CA0280EC90E09093CD028093CC0281EC90E09093CF028093CE0282EC30
:2013400090E09093D1028093D00286EC90E09093D3028093D20284E08093D40283E08093BE
:20136000D50287E08093D60285E08093D70281E08093D8020895CF93DF930E9478070E9471
:201380001002CFEED7E00E945F032097E1F30E94EF07F9CFCF92DF92EF92FF920F931F93A0
:2013A000CF93DF937C016B018A01C0E0D0E00FC0D6016D916D01D701ED91FC910190F0819E
:2013C000E02DC7010995C80FD91F015010400115110571F7CE01DF91CF911F910F91FF9018
:2013E000EF90DF90CF900895CF93DF93EC016115710519F420E030E00FC0DB010D900020D1
:20140000E9F71197A61BB70BE881F9810280F381E02DAD0109959C01C901DF91CF910895BB
:201420000E94F4090895629FD001739FF001829FE00DF11D649FE00DF11D929FF00D839F31
:20144000F00D749FF00D659FF00D9927729FB00DE11DF91F639FB00DE11DF91FBD01CF0177
:2014600011240895AA1BBB1B51E107C0AA1FBB1FA617B70710F0A61BB70B881F991F5A9517
:20148000A9F780959095BC01CD01089597FB092E07260AD077FD04D0E5DF06D000201AF46A
:2014A000709561957F4F0895F6F7909581959F4F0895A1E21A2EAA1BBB1BFD010DC0AA1F19
:2014C000BB1FEE1FFF1FA217B307E407F50720F0A21BB30BE40BF50B661F771F881F991FB9
:2014E0001A9469F760957095809590959B01AC01BD01CF01089597FB092E05260ED057FD10
:2015000004D0D7DF0AD0001C38F450954095309521953F4F4F4F5F4F0895F6F7909580954C
:20152000709561957F4F8F4F9F4F0895EE0FFF1F0590F491E02D0994F894FFCF494E49540C
:2015400020434F4D504C45544500020500000005000000002509CA09BB08EC08CC0815095C
:20156000FFFFFFFFFFFFFFFFFFFFFFFFFFFFFFFFFFFFFFFFFFFFFFFFFFFFFFFFFFFFFFFF8B
:20158000C901DF91CF9108954F925F927F928F929F92AF92BF92CF92DF92EF92FF920F93C7
:2015A0001F93DF93CF93CDB7DEB7A1970FB6F894DEBF0FBECDBF2C01742ECB01223008F424
:2015C0002AE019A231E2C32ED12CCC0EDD1E822E9924AA24BB24672D752FA50194010E9441
:2015E000E50B79018A01C801B701A50194010E949F0B472D461B0894C108D1084A3014F459
:20160000405D01C0495CF6014083E114F1040105110521F07E2C5F2DC801DDCFC201B601D1
:201620000E94A80AA1960FB6F894DEBF0FBECDBFCF91DF911F910F91FF90EF90DF90CF90DC
:20164000BF90AF909F908F907F905F904F900895DC012115310541F4ED91FC910190F081A9
:20166000E02D642F099508950E94C40A0895EF92FF920F931F939A01E62EFF2400E010E07A
:20168000B801A7010E94280B1F910F91FF90EF900895CF92DF92EF92FF920F931F93CF937F
:2016A000DF93EC016A017B012115310541F4E881F9810190F081E02D642F09951FC02A30E7
:2016C0003105D1F477FF17C0E881F9810190F081E02D6DE209958C0144275527BA014C194F
:2016E0005D096E097F09CE012AE00E94C40A9801280F391F04C02AE00E94C40A9C01C9016F
:20170000DF91CF911F910F91FF90EF90DF90CF900895EF92FF920F931F937B019A0100278C
:20172000F7FC0095102FB801A7010E94490B1F910F91FF90EF9008950E94A80A0895629F9E
:20174000D001739FF001829FE00DF11D649FE00DF11D929FF00D839FF00D749FF00D659F3A
:20176000F00D9927729FB00DE11DF91F639FB00DE11DF91FBD01CF0111240895AA1BBB1BF8
:2017800051E107C0AA1FBB1FA617B70710F0A61BB70B881F991F5A95A9F780959095BC01CA
:2017A000CD01089597FB092E07260AD077FD04D0E5DF06D000201AF4709561957F4F089578
:2017C000F6F7909581959F4F0895A1E21A2EAA1BBB1BFD010DC0AA1FBB1FEE1FFF1FA2179E
:2017E000B307E407F50720F0A21BB30BE40BF50B661F771F881F991F1A9469F7609570954C
:20180000809590959B01AC01BD01CF01089597FB092E05260ED057FD04D0D7DF0AD0001C74
:2018200038F450954095309521953F4F4F4F5F4F0895F6F790958095709561957F4F8F4F02
:201840009F4F0895EE0FFF1F0590F491E02D0994F894FFCF494E495420434F4D504C45545C
:201860004500020500000005000000007A091F0A1009410921096A09FFFFFFFFFFFFFFFF73
:2018800057FD04D0D7DF0AD0001C38F450954095309521953F4F4F4F5F4F0895F6F790958A
:2018A0008095709561957F4F8F4F9F4F0895EE0FFF1F0590F491E02D0994F894FFCF494E11
:2018C000495420434F4D504C4554450002050000000500000000AF09540A450976095609A4
:2018E0009F09FFFFFFFFFFFFFFFFFFFFFFFFFFFFFFFFFFFFFFFFFFFFFFFFFFFFFFFFFFFF5E
:20190000FFFFFFFFFFFFFFFFFFFFFFFFFFFFFFFFFFFFFFFFFFFFFFFFFFFFFFFFFFFFFFFFE7
:20192000FFFFFFFFFFFFFFFFFFFFFFFFFFFFFFFFFFFFFFFFFFFFFFFFFFFFFFFFFFFFFFFFC7
:20194000FFFFFFFFFFFFFFFFFFFFFFFFFFFFFFFFFFFFFFFFFFFFFFFFFFFFFFFFFFFFFFFFA7
:20196000FFFFFFFFFFFFFFFFFFFFFFFFFFFFFFFFFFFFFFFFFFFFFFFFFFFFFFFFFFFFFFFF87
:203800000C94341C0C94511C0C94511C0C94511C0C94511C0C94511C0C94511C0C94511C5D
:203820000C94511C0C94511C0C94511C0C94511C0C94511C0C94511C0C94511C0C94511C20
:203840000C94511C0C94511C0C94511C0C94511C0C94511C0C94511C0C94511C0C94511C00
:203860000C94511C0C94511C11241FBECFEFD4E0DEBFCDBF11E0A0E0B1E0EEEAFFE302C003
:2038800005900D92A230B107D9F712E0A2E0B1E001C01D92AD30B107E1F70E94331D0C9426
:2038A000D51F0C94001C982F9595959595959595905D8F708A307CF0282F295A8091C0002C
:2038C00085FFFCCF9093C6008091C00085FFFCCF2093C6000895282F205DF0CF982F80910F
:2038E000C00085FFFCCF9093C6000895EF92FF920F931F93EE24FF2487018091C00087FDBB
:2039000017C00894E11CF11C011D111D81E2E81681EAF80687E0080780E0180770F3E0914B
:203920000401F091050109958091C00087FFE9CF8091C6001F910F91FF90EF9008950E94DA
:20394000761C982F8091C00085FFFCCF9093C60091362CF490330CF09053892F089597553B
:20396000892F08951F930E949F1C182F0E949F1C1295107F810F1F9108951F93182F882388
:2039800021F00E94761C1150E1F71F9108951F93182F0E94761C803249F0809103018F5F41
:2039A000809303018530C1F01F9108958091C00085FFFCCF84E18093C6008091C00085FF8A
:2039C000FCCF1093C6008091C00085FFFCCF80E18093C6001F910895E0910401F09105010F
:2039E00009951F9108950E94761C803241F0809103018F5F80930301853081F008958091D7
:203A0000C00085FFFCCF84E18093C6008091C00085FFFCCF80E18093C6000895E0910401EC
:203A2000F09105010995089510920A028823D1F090E048EC50E02D9A28EE33E0FA01319723
:203A4000F1F721503040D1F72D9828EE33E0FA013197F1F721503040D1F79F5F981758F39B
:203A600080930A0208953F924F925F926F927F928F929F92AF92BF92CF92DF92EF92FF920D
:203A80000F931F93CF93DF9394B714BE809160008861809360001092600091FF0CC289E14A
:203AA0008093C4001092C50088E18093C10086E08093C2005098589A259A81E00E94141D83
:203AC00044E1F42E3EE1E32E24E9D22E96E0C92E80E1B82EAA24A39401E4902E16E5812E5C
:203AE000B2E57B2EA0E26A2EF9E45F2EE3E54E2E70E5372E0E94761C8033B9F18133C1F10D
:203B0000803409F470C0813409F477C0823409F486C0853409F489C0803539F1823529F133
:203B2000813509F4AFC1853509F485C0863509F48DC0843609F435C1843709F4C1C08537BF
:203B400009F490C0863709F466C0809103018F5F80930301853071F6E0910401F091050105
:203B600009950E94761C803349F60E94F31CC2CF0E94761C803249F78091C00085FFFCCFF9
:203B8000F092C6008091C00085FFFCCF9092C6008091C00085FFFCCF8092C6008091C0000C
:203BA00085FFFCCF7092C6008091C00085FFFCCF6092C6008091C00085FFFCCF5092C6004E
:203BC0008091C00085FFFCCF4092C6008091C00085FFFCCF3092C6008091C00085FFFCCF65
:203BE000B092C60087CF0E94761C863808F4BDCF0E94761C0E94F31C7DCF0E94761C8038D0
:203C000009F45AC0813809F453C0823809F440C1883909F449C080E00E94C71C6BCF84E1C1
:203C20000E94BD1C0E94F31C65CF85E00E94BD1C0E94F31C5FCF0E94761C809306010E9475
:203C4000761C809307010E94F31C54CF0E94761C803309F421C183E00E94BD1C80E00E943D
:203C6000C71C48CF0E94761C803209F06ECF8091C00085FFFCCFF092C6008091C00085FF71
:203C8000FCCFE092C6008091C00085FFFCCFD092C6008091C00085FFFCCFC092C600809190
:203CA000C00085FFFCCF9CCF83E00E94C71C22CF81E00E94C71C1ECF82E00E94C71C1ACF0E
:203CC0000E94761C809309020E94761C809308028091060190910701880F991F9093070186
:203CE000809306010E94761C853409F4C5C080910C028E7F80930C020E94761C803209F00F
:203D0000F9CE8091C00085FFFCCFF092C60060910802709109026115710591F140E050E0AF
:203D200080910C02A82FA170B82FB27010C0BB2361F1E0910601F09107013196F093070120
:203D4000E09306014F5F5F4F46175707C8F4AA2371F3F999FECF209106013091070132BD16
:203D600021BDF89A90B58091C00085FFFCCF9093C6002F5F3F4F3093070120930601E2CF33
:203D80008091C00085FFFCCF2BCFE0910601F091070194918091C00085FFFCCF9093C600DA
:203DA000CCCF0E94761C809309020E94761C8093080280910C028E7F80930C020E94761C44
:203DC000853429F480910C02816080930C028091080290910902892B89F000E010E00E9406
:203DE000761CF801E85FFE4F80830F5F1F4F80910802909109020817190788F30E94761C90
:203E0000803209F0A2CE80910C0280FF62C04091060150910701440F551F50930701409381
:203E20000601609108027091090261157105C9F0E8E0F1E09A01DB01AE0FBF1FF999FECFC5
:203E400032BD21BD819180BDFA9AF99A2F5F3F4FEA17FB0799F7460F571F509307014093E7
:203E600006018091C00085FFFCCFF092C6008091C00085FFFCCFB4CE80910C02816080931E
:203E80000C023ACF0E94F31C88E080936000FFCF80E10E94C71C2ECE0E94761C0E94761C67
:203EA000182F0E94761C112381F0113051F086E00E94C71C1FCEE0910401F09105010995ED
:203EC000EECD84E90E94C71C15CE8EE10E94C71C11CE809107018823880F880B8A218093D3
:203EE0000B028091060190910701880F991F90930701809306018091080280FF09C080916C
:203F000008029091090201969093090280930802F894F999FECF1127E0910601F091070165
:203F2000C8E0D1E08091080290910902103091F40091570001700130D9F303E000935700F9
:203F4000E8950091570001700130D9F301E100935700E89509901990009157000170013079
:203F6000D9F301E000935700E8951395103498F011270091570001700130D9F305E00093B3
:203F80005700E8950091570001700130D9F301E100935700E8953296029709F0C7CF10307E
:103FA00011F00296E5CF11245CCFF894FFCF80008A
:00000001FF
